:020000040002F8
:1060000060520020C1630200C9630200CB6302003A
:10601000CD630200CF630200D163020000000000E4
:10602000000000000000000000000000D363020038
:10603000D563020000000000D7630200D9630200AC
:1060400091670200DB630200F1690200DB6302007A
:10605000DB630200DB63020079650200DB630200A0
:10606000DB630200DB630200DB630200DB63020030
:10607000DB630200DB630200DB630200DB63020020
:10608000DB630200E9670200DB630200DB630200FE
:106090000D680200DB63020011680200DB6302008E
:1060A000DB630200DB630200DB630200DB630200F0
:1060B000DB630200DB630200000000000000000060
:1060C000DB630200DB630200DB630200DB630200D0
:1060D000DB630200DB630200DB630200DB630200C0
:1060E000DB630200DB630200DB63020000000000F0
:1060F00000000000DB63020000000000DB63020020
:10610000000000000000000000000000000000008F
:10611000000000000000000000000000000000007F
:10612000000000000000000000000000000000006F
:10613000000000000000000000000000000000005F
:10614000000000000000000000000000000000004F
:10615000000000000000000000000000000000003F
:10616000000000000000000000000000000000002F
:10617000000000000000000000000000000000001F
:10618000000000000000000000000000000000000F
:1061900000000000000000000000000000000000FF
:1061A00000000000000000000000000000000000EF
:1061B00000000000000000000000000000000000DF
:1061C00000000000000000000000000000000000CF
:1061D00000000000000000000000000000000000BF
:1061E00000000000000000000000000000000000AF
:1061F000000000000000000000000000000000009F
:10620000DFF80CD000F07AF900480047D5A702006B
:106210006052002030B450E8012F93B2C489234467
:106220008489A34228BF1B1B0489A34202BFBFF37A
:106230002F8F002007E0C3EA020340E80134002C5E
:10624000E9D14FF001000A6030BC704750E8012FDF
:10625000C2EA024240E801210029F7D1704730B478
:1062600050E8022F1FFAA2F3C488A34202BFBFF373
:106270002F8F00200DE0C48923448489A34228BFC6
:106280001B1BC2EA034340E80234002CE8D14FF064
:1062900001000A6030BC704750E8022FC2EA224277
:1062A00040E802210029F7D17047034653E8022F46
:1062B000D988B2EB324F4FF0000017BF92B241EADB
:1062C000014142EA014104E05A68B2EB324F08BF93
:1062D000012043E80212002AE8D1704730B4044696
:1062E00054E8000F0D4644E80053002BF8D1156028
:1062F00030BC704730B4044654E8000F40EA010552
:1063000044E80053002BF7D1156030BC704730B41F
:10631000044654E8000F00EA010544E80053002B4E
:10632000F7D1156030BC704730B4044654E8000F14
:1063300080EA010544E80053002BF7D1156030BC1A
:10634000704730B4044654E8000F00EB010544E800
:106350000053002BF7D1156030BC704730B40446B1
:1063600054E8000FA0EB010544E80053002BF7D1DF
:10637000156030BC704770B404464FF0000054E81C
:10638000006F0D68AE4207BF44E80023012044E8D7
:1063900000630E60002B1CBF0020F0E770BC70474C
:1063A00030B4044654E8000F88422CBF451A054615
:1063B00044E80053002BF5D1156030BC7047000055
:1063C0000648804706480047FEE7FEE7FEE7FEE78F
:1063D000FEE7FEE7FEE7FEE7FEE7FEE715680200E0
:1063E000016202002DE9F05F0546002092469B46BF
:1063F00088460646814640241BE0284641464746DB
:10640000224600F06BF853465A46C01A914110D309
:1064100011461846224600F016F82D1A67EB0108BF
:106420004F4622460120002100F00DF817EB00092D
:106430004E41201EA4F10104DFDC484631462A46C5
:106440004346BDE8F09F202A04DB203A00FA02F11F
:10645000002070479140C2F1200320FA03F3194352
:1064600090407047004870474406030040EA01032B
:106470009B0703D009E008C9121F08C0042AFAD2FA
:1064800003E011F8013B00F8013B521EF9D27047BE
:10649000D2B201E000F8012B491EFBD27047002266
:1064A000F6E710B513460A4604461946FFF7F0FF13
:1064B000204610BD421C10F8011B0029FBD1801A98
:1064C000704730B504460020034600E05B1C934251
:1064D00003D2E05CCD5C401BF8D030BD202A04DB49
:1064E000203A21FA02F00021704721FA02F3D0404D
:1064F000C2F120029140084319467047064C074DEF
:1065000006E0E06840F0010394E807009847103483
:10651000AC42F6D3FFF778FED80D0300F80D030068
:1065200070B58C1810F8015B15F0070301D110F855
:10653000013B2A1106D110F8012B03E010F8016B82
:1065400001F8016B5B1EF9D12B0705D40023521E05
:106550000DD401F8013BFAE710F8013BCB1A921C6D
:1065600003E013F8015B01F8015B521EF9D5A1426B
:10657000D8D3002070BD00002DE9F04F00268DB06B
:10658000DFF8A081B14604964FF4807501243746A8
:106590000596284605F094FA38B1D8F8040320424D
:1065A00003D0284605F082FA26432D1D64007F1C87
:1065B000ADB2082FEDD34FF4BE74204605F080FA3B
:1065C00048B1204605F072FA46F0004604AA0221BE
:1065D000002005F055FA544C16F0FF0F15D0012796
:1065E000002537420DD008EB8501D1F81005D1F810
:1065F0001015C0F3052054F82520C1F3014102B164
:1066000090477F006D1C082DEBD3002E7EDA002012
:10661000CDF82890411E0DF1100B07AACDF82C9053
:1066200042F82010401C91460228F9D300252E463E
:10663000A11911F8607F91F9000027F0C008401CF3
:1066400040D007A9404604F0E6FB40B34FEA971A52
:10665000404602F0FFF854F820701FB1BAF1030F62
:1066600003D006E0BAF1030F2CD10AA9404604F08A
:10667000DAFB02A8CDF8088005F0A6F9029900EB34
:106680008100D0F8000704A9C0F301400290404601
:1066900004F0C1FB0028029802D0022802D011E0C9
:1066A00003280FD1BAF1030F08D10298022833D082
:1066B0000221404605F062F96D1CEDB217B151465A
:1066C0004046B847761C042EB2D3002D21D001AA33
:1066D0000221002005F0D4F900205A460DF10401F2
:1066E00052F8206051F82030B34217D000200AAE93
:1066F0004FEA090351F8207042F8207056F82070D4
:1067000043F82070401C0228F4D300E001E0002D83
:106710008CD10DB0BDE8F08F0321CAE7401C0228E0
:10672000DED3F6E700600040B829002000F01F0229
:10673000012191404009800000F1E020C0F8801262
:10674000704700F01F02012191404009800000F1D4
:10675000E020C0F80011704700F01F0201219140B5
:106760004009800000F1E020C0F80012704749079E
:10677000090E002806DA00F00F0000F1E02080F892
:10678000141D704700F1E02080F8001470470000ED
:1067900070B54FF48076304604F07CFC114CB505A2
:1067A00060B1304604F07DFC0120C5F80803607933
:1067B00020B9012060712168002088474FF482765B
:1067C000304604F067FC00280AD0304604F069FC2B
:1067D0000220C5F808032168BDE870400120084781
:1067E00070BD00004423002007480021C0F840117C
:1067F000C0F84411C0F84811C0F84C11C0F800119D
:10680000C0F8041108F002BF0010014008F04CBEAF
:1068100005F0C4BE30B54FF0805000228300D0F8A0
:106820003011C3F80C21C3F81021624B1A60624B7F
:106830001B68624C2360604B1B1D1B68241D23607A
:106840005D4B08331B68241D23605B4B0C331B68B6
:10685000241D2360584B10331B68241D2360564BA6
:1068600014331B68241D2360534B18331B68534C8F
:1068700020342360504B1C331B68241D23604E4B77
:1068800020331B68241D23604B4B24331B68241DBD
:106890002360494B28331B68241D2360464B2C334F
:1068A0001B68241D2360444B30331B68434C403429
:1068B0002360414B34331B68241D23603E4B383327
:1068C0001B68241D23603C4B3C331B68241D236044
:1068D000394B40331B68241D23600124082902D151
:1068E000D0F8343113B1082904D006E0354B3449CF
:1068F000196005E0D0F8343113B1082904D006E05E
:10690000314BFB21196005E0D0F8343113B108296F
:1069100008D00EE090F858322C48016863F3030168
:10692000016002E0D0F834311BB929494FF40070FE
:10693000086028480168C90702D06FF001010160B2
:106940002548016841F470010160BFF34F8FBFF328
:106950006F8F4FF01021D1F80002002803DBD1F82F
:106960000402002822DA1D4B1C601D480468002C1C
:10697000FCD01224C1F800420568002DFCD0C1F8FB
:10698000044201680029FCD01A6001680029FCD08B
:10699000BFF34F8F10487C380168124A01F4E06160
:1069A00011430160BFF34F8F00BFFDE70F490E4851
:1069B000086030BD380500400404001020C50040C8
:1069C000488103008C56004018F50040E40E00405A
:1069D000409602400004004088ED00E004E50140DC
:1069E00000E401400400FA050090D0036C2400206C
:1069F00001480068004700004C23002002E008C85E
:106A0000121F08C1002AFAD170477047002001E028
:106A100001C1121F002AFBD170470000012120286C
:106A200003DA81400548014003E0402802DA2038BB
:106A3000814009B10120704700207047FC06FFBD6E
:106A400010B560B159B102780B785208B2EB530F10
:106A500005D10622401C491CFFF733FD08B1002078
:106A600010BD012010BD800701D00020704701201B
:106A70007047C3688B4206D811440069491E8142A1
:106A800001D8012070470020704710B50122022173
:106A9000002001F0EFFC08B1072810D107220221E5
:106AA000012001F0E7FC08B1072808D100210A22E3
:106AB000084601F0DFFC08B1072800D1002010BD16
:106AC00010B550B10A480321008801EB004009A12C
:106AD00005F0E6F907F086FA03E00321094800F023
:106AE0004FFD002803D0BDE8104000F0CBB810BD2A
:106AF000BC240020457261736520626F6E6473214F
:106B0000000000003C25002070B58CB015460E46F4
:106B100000236C46C3F10F01415CE1545B1C102B58
:106B2000F8D30D2104F11000FFF7B9FC0020C0F1EB
:106B30000F02315C2244401C11740328F7D36846CD
:106B400046DF0020C0F10F01214491F820102954A4
:106B5000401C0328F6D30CB070BD022001F084BBAA
:106B60000149097900F06ABFC822002070B50024ED
:106B7000064D06E06868012110F8340005F0F8FDC4
:106B8000641C28788442F5D3002070BD582300206F
:106B9000F8B515460C460646052A01D20720F8BD71
:106BA00005F0DEFE18B905F0A1FE0028F7D1124964
:106BB00000224E600C708D60C1E90422C1E90622FA
:106BC0000E4D0DE006EBC4002968009181788DF828
:106BD000011000780A4A694605F016FE0028DED149
:106BE000641EE4B2EED2BDE8F84004480021054A34
:106BF000001D00F053B8000058230020C00203001D
:106C000035990200418D020072B605F0FFF900BF10
:106C100005F036F80028FBD1104C0121208801EB4B
:106C200000400FA105F03CF910480068C00700D0F3
:106C300000BE2088022101EB00400DA105F030F9D3
:106C4000BFF34F8F0948E43801680D4A01F4E06151
:106C500011430160BFF34F8F00BFFDE7BC2400204C
:106C6000466174616C206572726F7200F0ED00E035
:106C700053797374656D207265736574000000004C
:106C80000400FA050EB500210091CDE901106A4615
:106C900044F20100FFF7B8FF0EBD0000084B9B78DF
:106CA00023B12AB120B10068037C1BB108207047D2
:106CB00007207047002303744174426118467047EF
:106CC000942A002070B507F099FC104800240B218D
:106CD000047044700E4D817014206C602C706C70C8
:106CE000FFF724FD07211420FFF741FD1420FFF7D3
:106CF00028FD0848046007211120FFF738FD0548EA
:106D0000001F0068A860002070BD0000942A0020C9
:106D100078230020081501402DE9FC47DFF8789022
:106D200099F8023073B368B3052902D20720BDE891
:106D3000FC87436933B3437C012B25D000270446ED
:106D40000025884616468DF80050684600F038F851
:106D500001A808F05DFFC8B1012101700F4944602E
:106D60000968C0E90218C0E904769DF8040089F8B2
:106D700001009DF8000000F047F81420FFF7ECFC3C
:106D80002846D4E70820D2E70F46D8E704259DF827
:106D9000000000F039F8F3E7942A002004150140C0
:106DA0000649897839B130B1416921B100210174B6
:106DB000022108F007BC082070470000942A002038
:106DC00030B5EFF3108172B60D4A9468012324B1F7
:106DD0000370002900D162B630BD93604FF0E0230C
:106DE000D3F88051074C25401560C3F88041D3F893
:106DF000844154605A17C3F8842100220270E8E7E6
:106E0000A02B0020FC06FFBD0B498A68002A11D088
:106E100000280FD1EFF3108072B60B684FF0E0221C
:106E2000C2F800314B68C2F8043100228A600028A1
:106E300000D162B670470000A02B002070B5054657
:106E400008680C46411C04D004F0F3FD206804F0EF
:106E500081FD6068411C02D0002104F069FD2968B1
:106E6000A069C1F82405607D227D29681043C1F81E
:106E70006C05D4E900122868C0F81425C0F80C1578
:106E8000207D012814D1A068411C02D0002104F00B
:106E90004FFDE068411C04D004F0CBFDE06804F035
:106EA00059FDD4E902122868C0F80825C0F8101569
:106EB00070BD70B5054608680C46411C04D004F04E
:106EC000C2FD206804F050FD6068411C02D0002122
:106ED00004F037FD2968A069C1F82405607D217D93
:106EE0002A680843C2F86C05D4E900122868C0F883
:106EF0000C15C0F81425207D012814D1A068411C70
:106F000002D0002104F01DFDE068411C04D004F013
:106F10009AFDE06804F028FDD4E902122868C0F860
:106F20000825C0F8101570BD03F0B0BB2DE9F0477F
:106F3000074600888EB0804603F09EF882460446DD
:106F40002D4800252A460178404600F08FFD7879CB
:106F5000400734D501254FF6FF7603AB2A460721BB
:106F6000504606F095FA010004D0404607F090FD27
:106F700000252BE0B1463146049802F0D1FF0646C9
:106F800048450FD004460146404603F05FF84046AE
:106F9000FFF7E6FD30B9404607F04CFD4046FFF7ED
:106FA000DFFD48B122460721504606F0E7FA01000E
:106FB00003D0404607F06CFD00254E4506D0404604
:106FC00006F04AFC10B1504603F042F802208DF85A
:106FD0001800ADF81A807879400701D5012000E04B
:106FE00002208DF820008DF8215006A802F01CF830
:106FF0000EB0BDE8F0870000C82200202DE9F04364
:107000000546407C93B00E460024A0B107949DF83D
:107010001C0020F00F00401C20F0F00010308DF814
:107020001C00707B8DF81D009DF81E0020F00600EE
:10703000801C8DF81E001C216846FFF730FA9DF871
:10704000000040F002008DF80000697C11B140F0B2
:10705000100001E020F010008DF80000019403946E
:107060000494687C00B107A8CDE9050401278DF8D8
:10707000427042F61920ADF840000D94B07B8DF8B7
:107080003400F07B8DF835009DF83600142120F097
:107090000600801C20F019008DF83600307B8DF83A
:1070A000440008A8FFF7FBF90DF140080DF1340981
:1070B000ADF8287011A8CDE90889ADF82A40ADF8DF
:1070C0002C700C90A888AB1D08AA6946AADF00287E
:1070D00038D1B06898B38DF8427042F60810ADF818
:1070E00040000D94307C8DF834009DF8350020F080
:1070F000FF008DF835009DF8360020F00600801C5A
:1071000020F019008DF836000EA8B16801F061F882
:107110000646142108A8FFF7C2F9ADF828600EA8AA
:10712000CDE90889ADF82A40ADF82C600C90E888CC
:1071300005F10E0208A9ABDF002803D101E0FFE74B
:10714000EC81002013B0BDE8F083000010B50D49BC
:107150000D4807F0FCFCC1B24FF6FE720B4800F080
:107160002BFB00280DD008280BD0132809D011289C
:1071700007D043F20141884203D0BDE81040FFF739
:1071800081BD10BDF425002034220020EC24002015
:107190000A4601461046AEDF704770B5150004463A
:1071A00009D00020286034B1206820B1A079800780
:1071B00003D0072070BD0E2070BD084600F0DEFB36
:1071C000C0B2142804D02179814203D8042070BDB4
:1071D000052070BDE288216800FB021028600020B5
:1071E00070BD2DE9FC47002517880646158090F8EC
:1071F0002D001446894630B13A462146484600F0F3
:107200005FFC051E09D1B0784FF00C0A18B3208836
:10721000C846001DB84202D95046BDE8FC87684602
:1072200079DF0028F9D12088032108F80010208890
:107230001921401C80B2208008F800102088401CD2
:1072400080B2208000EB0801BDF8000008F00EFCC1
:10725000218808442080F0780222C8B1218896F95C
:10726000033001F1030C4846BC45D5D8425421886F
:107270004FF0010C491C89B2218000F801C021881F
:10728000491C89B2218009F801302088401C2080E7
:107290007068B8B1218890F9003001F1030C4846BC
:1072A000BC45B9D8425421880A22491C89B22180A0
:1072B00042542188491C89B2218009F80130208874
:1072C000401C2080308950B1CDE900474B46062252
:1072D000022106F1080008F0B3FC051E9DD1308A9A
:1072E00050B1CDE900474B460722032106F11000BB
:1072F00008F0A6FC051E90D1308B50B1CDE90047B7
:107300004B461522142106F1180008F099FC051EC1
:1073100083D1306A30B13B462246494601F0A5FB95
:10732000051EDBD1706A30B13B462246494603F068
:107330002DFB051ED2D196F82C0038B13B462246D3
:107340004946304607F0A2FC051EC7D1307838B157
:107350003B4622464946304603F09EFB051EBDD102
:1073600028465AE718B504460020ADF80000134639
:107370006A46204600F006F8002802D0BDF800005A
:10738000204418BD70B588B182B10024158803E08F
:10739000065D641C3444A4B2A54203D8061976786D
:1073A0009E4201D08C42F3D38C4201D3002070BDA9
:1073B000A11C1180005D401E80B270BD80F83010AD
:1073C00070472DE9F0410E00044606D02CB196F826
:1073D0007A000025012803D006E00E20BDE8F081E8
:1073E00096F89800012821D04FF00108A5702C22B2
:1073F00006F17801201DFFF739F884F83050D6F8EF
:10740000A4006063D6F8A800A0634FF6FF70A4F84C
:10741000A80004F19400C4F8A400C4F8AA50A4F889
:10742000AE5084F8B050207810B104E00720D5E7C2
:10743000FF2084F8540004F155011F27C4F894106C
:10744000A4F8987004F198023046FFF7CAFE0028AD
:10745000C4D116F13C0F0ED004F17401C4F89C1095
:10746000A4F8A07004F1A00206F13C00FFF7B9FEF9
:107470000028B3D103E0C4F89C50A4F8A05084F8CD
:107480005180208BA4F8480084F83C80256484F85F
:10749000505060696064464604F13C02002104F1EA
:1074A000540072DF002899D1267097E710B5028842
:1074B000102A1BD0112A20D0262A1DD1007A0C4672
:1074C000012801D0022817D1A0780521401CB0FB6B
:1074D000F1F201FB1201204600F052F800280BD017
:1074E000A16B002908D0BDE810400847C27B012AE3
:1074F00002D18088A1F8A80010BD0C46002184F8B4
:10750000B2108088B4F8A8108842F5D120790028FC
:10751000F2D10121DFE710B50C46022801D0032883
:1075200010D1607800280DD000206070A17820462E
:1075300000F026F8002805D0A16B002902D0BDE894
:107540001040084710BD10B5044690F8540074DF91
:10755000012084F8B200002084F8B40084F85000C0
:107560000621204601F066FF002808D1A1782046B8
:1075700000F006F810B1A16B01B18847002010BDE2
:107580002DE9F05F044600780F4638B1A77000205F
:1075900003F0D8FF012620B1667007E10820BDE89E
:1075A000F09F0025C4F8AA50A4F8AE5084F8B0505B
:1075B000A07910B1A078012806D0E07968B1A07850
:1075C000012801D0022808D1616B21B184F8B16093
:1075D0000820884701E084F8B15004F1AB01002095
:1075E0000A5C0AB1304603E0401C0628F8D30020AC
:1075F0004FF002084FF0030B012F06D0022F0CD0E2
:10760000032F0FD0042F15D110E0A17929B194F8E0
:10761000241011B908B130460DE0E17911B108B17B
:10762000404608E0207A08B1584604E0607A08B184
:10763000042000E02846A070616B41B1032801D00E
:10764000042804D1607910B194F8B200A0B184F894
:10765000B35004F13C0018210746FEF720FF04F167
:107660002C0084F83C60814606F022FA58B194F868
:107670002C0084F8510008E084F8B45084F8B3601A
:1076800007208847E5E784F8516094F8240050B15A
:10769000484606F00DFA20B194F8280084F852000C
:1076A00001E084F8526084F85050A27804F1AA01F5
:1076B00004F194094FF0060A052A60D2DFE802F0CF
:1076C00078030F223F0084F83160C4F8A450C4E965
:1076D000101584F83C808020A4F8480051E084F81C
:1076E000318094F82420384612B10722027001E05C
:1076F00080F800B0228A8281C4F8A4504160E16819
:10770000B9603EE06069B860208BB88194F82400CD
:107710003D4610B184F83CA001E084F83C6020466E
:1077200008F052FA40B185F814800421204601F097
:1077300081FE20BB05211EE084F831B01DE0E06928
:10774000B860208CB88194F824003D4610B184F8CC
:107750003CA001E084F83C60204608F035FA48B1CE
:1077600085F814800421204601F064FE38B984F8BD
:1077700031A002E0042184F83110C4F8A490A0786C
:1077800078B13A4604F15400D4F8A41072DF00280E
:107790007FF405AF94F8301094F8540073DF00289C
:1077A000F6D1616B11B194F8310088470020F6E6FC
:1077B00084F83150F5E70000F7B594B0174605009E
:1077C0003CD0287C9DF854100024884252D00026DA
:1077D0004FF0010E0D9615A8ADF834E00E90ADF8FF
:1077E0003660E9880DAA4FF6FF70ACDF040026D1A1
:1077F0009DF854002874687CA0B30F9610961196DB
:107800001296E888ADF83C00BDF83600ADF84000AF
:107810000DA811900E981290A7F57F408DF83EE0CC
:10782000FE3805D039460FA8FFF7B2FC044621E028
:10783000684600F09DF800256F460FE00E2017B057
:10784000F0BD00BF07EB4506B08800F0D9F802286C
:1078500003D144B10FA9B088AEDF6D1C0098A842D7
:10786000F0D807E005E0B1880FA8FFF791FC0446C7
:10787000F3E708242046E2E738B50D46040018D0A7
:10788000BDB12868206028796074FF202074012031
:107890008DF8020041F60F00ADF80000221D694688
:1078A0000120A8DF002803D129462046FFF7A6FBC8
:1078B00038BD0E2038BD38B5002924D0002822D08C
:1078C0000288502A1FD10546487C0C4600281AD051
:1078D000E9886289A81D914215D14189022912D1F6
:1078E000216800290FD00C3000F06FFC08B1002097
:1078F00000E001208DF80000A888ADF802002268A1
:1079000069462046904738BD70B5040012D0014644
:107910001C221448FEF7AAFD1248134D056020688A
:1079200050B17ADF002806D12068016829604068DC
:10793000686005E00E2070BD0B487BDF0028FAD19F
:1079400008484FF6FF711438084A20F8041B05490F
:10795000343901600021FFF7A1F90028EBD00320A2
:1079600070BD0000B42600208822002061FB0200C8
:107970000149496801F05AB8D026002010B50446E4
:1079800000F094F808B1204610BD142010BD00008E
:1079900010B5044600F08AF8002805D02146BDE85D
:1079A0001040024803F09BB910BD0000E026002003
:1079B00070B515460E46044608F012F9002809D0A5
:1079C000054800EB840080692A463146BDE87040D6
:1079D00001F06EBD70BD0000D026002070B50546D8
:1079E000002400F063F838B12946044803F077F921
:1079F00008B1022400E00124204670BDDC260020EE
:107A000070B50546002400F051F838B12946044805
:107A100003F065F908B1022400E00124204670BD9E
:107A2000D826002010B51821034803F033F9182890
:107A300000D0C0B210BD0000D026002070B50546B1
:107A40000C46084608F0CCF860B1284600F02EF845
:107A500040B10548294600EB8400BDE8704018306D
:107A600003F03DB9002070BDD026002070B505465A
:107A700014460E46084608F0B3F8002812D02846EF
:107A800000F014F800280DD00748294600EB8600C6
:107A900018301CB1BDE8704003F02CB9BDE870404F
:107AA00003F0DDB870BD0000D0260020142801D3FB
:107AB000002070470146014803F011B9D426002088
:107AC0007CB5054608880C460930904201D90C2047
:107AD0007CBD68466DDF0028FAD1218808206854F3
:107AE00020881B21401C80B2208029542088401C03
:107AF00080B220802844DDF801100160BDF8051037
:107B000081802088801D80B220809DF80010490867
:107B100000D0012129542088401C208000207CBDF9
:107B20007FB5044601208DF8060041F60A00ADF845
:107B30000400454A01A90120A8DF00287ED122883F
:107B400004F13C0552B140482B46801C009042F69F
:107B50002920616800F086FE002873D1228952B185
:107B600039482B460A30009042F62420E16800F0A4
:107B700079FE002866D1228A52B133482B46123052
:107B8000009042F62520616900F06CFE002859D172
:107B9000228B52B12C482B461A30009042F62720F7
:107BA000E16900F05FFE00284CD1228C52B12648DA
:107BB0002B462230009042F62620616A00F052FEE9
:107BC00000283FD1228D52B11F482B462A30009009
:107BD00042F62820E16A00F045FE002832D1216BF0
:107BE00071B102A807F022FC17482B4632300090F2
:107BF000082202A942F6232000F034FE002821D1F9
:107C0000606B58B110492B463A31009102790168F6
:107C100042F62A2000F026FE002813D1A16B81B184
:107C200002A806F038FA08482B4642300090072296
:107C300002A942F6502000F015FE00E002E0002804
:107C400000D1002004B070BDE6220020F8B5018804
:107C50000026044621292FD012DC1E484FF00302D3
:107C60001D4D0088102902EB004011D0112906D1CA
:107C70001AA104F015F94FF6FF7068802E70F8BD58
:107C80003B2922D05629FAD18088132176DF0DE0D6
:107C900016A104F005F9072000F00EFC08B1FEF76C
:107CA000F1FFA1886980144803F07CF90028E6D030
:107CB000BDE8F840FEF7E6BF0096808869468FDF92
:107CC0000028DCD0FEF7DEFFF8BD8088132176DFC8
:107CD000ECE70000BC2400202822002044697363E4
:107CE0006F6E6E65637465642E000000436F6E6E88
:107CF00065637465642E00003025002010B51A4CB1
:107D00000188606810290ED011292BD1401E6060B7
:107D100028D1FEF7BAFE002824D02168002921D0FE
:107D2000BDE810400847D0B900210122084600F004
:107D3000A1FB08B107280FD107220221012000F082
:107D400099FB08B1072807D104220221002000F086
:107D500091FB20B1072802D0216801B188476068F3
:107D6000401C606010BD0000802200202DE9F0471B
:107D700001883B4E40F2F3194FF6FF7510291BD0D6
:107D800011293ED0122954D0502946D1C188F289F8
:107D9000841D914241D1618902293ED186883046B5
:107DA00002F016FA050038D004F10C0000F00DFACC
:107DB000A8B3294630464EE0C17B87880446012996
:107DC0002BD1A846284602F003FA050017D02F80D1
:107DD00000202872234843464A460168C5F80A1025
:107DE0004068C5F80E0004F1100105F10A0002F028
:107DF000BBFA6872F08900280FD129462AE00420D6
:107E000013E0808802F0E4F9040006D06068FEF711
:107E1000C7FF08B106F020FE2580BDE8F087FFE728
:107E20006868FEF7BDFF0028F7D0BDE8F04706F010
:107E300013BE87880646384602F0CAF90400ECD023
:107E40002B464A4606F1080104F10A0002F08CFABA
:107E5000607221463846BDE8F04700F04DBE000094
:107E6000B4260020882200202DE9F04F074685889F
:107E700002883D48012197B08346102A09D0112A73
:107E800049D01A2A6CD1387AB1EB101F45D20122A1
:107E900044E0354C083CA068C0430B9061680BA8D7
:107EA00002F041FF0B990CA800F0C0FD2C220CA998
:107EB0006846FEF7DBFA0026E946A04610E000BF60
:107EC00009EB46005FF00004B0F804A008EB840062
:107ED0005146001D02F0C3FE641C1D2CF6D3761C17
:107EE0000098B042ECD8142D05D317B00420BDE89B
:107EF000F04FFEF7C7BE2946584602F0FBFE294662
:107F000008F1040002F0F6FEF87B012828D016489C
:107F10002946001D15E029461AE000220221B1EB96
:107F2000101F01D2012600E000260F49083901F197
:107F30001000041D294682B102F0DCFE36B129464C
:107F4000204617B0BDE8F04F02F0D4BE29462046C7
:107F500017B0BDE8F04F02F082BE02F080FEF5E7F8
:107F600017B0BDE8F08F0000D826002010B50446F9
:107F70000748007800280AD0204601F057FF204625
:107F800006F0AEFF2046BDE8104001F0D5BB10BDA5
:107F9000B822002038B50446086820604FF6FF700C
:107FA000E082887A207601208DF8020041F60900EF
:107FB0000D46ADF80000221D69460120A8DF00280B
:107FC0000ED12946204601F0D9FD002808D1687A53
:107FD00028B12946204601F0A5FE002800D1002046
:107FE00038BDFEB500250E4602210095ADF8001003
:107FF00002A9ADF8025001914189C08A6A46ADDFFD
:10800000040043F2014004D0844206D135700020C0
:10801000FEBD02A800F0D5F830702046FEBD30B598
:108020000446C08A8BB0A0F57F42FF3A23D005AA50
:10803000204601F009FE0546ADF800000020019041
:10804000029003900490E188ADF804100221ADF88D
:1080500008008DF8061005A8CDF80CD00490E08A31
:1080600001A9AEDF002804D1BDF80010A94200D05C
:108070000C200BB030BD0820FBE738B50288102A71
:1080800012D0112A12D0502A14D0532A0BD10A46EA
:10809000C088C988884206D102208DF80000136884
:1080A00069461046984738BD808801E04FF6FF705A
:1080B000C88238BD0C4630F8061F62899142F8D15B
:1080C00041890229F5D121680029F2D00C3000F055
:1080D00078F808B1002000E001208DF80000226847
:1080E00069462046904738BD30B5144B0D46040014
:1080F0000FCB85B08DE80F001ED0EDB12868A061D0
:108100002146684662DF002814D120788DF81200DD
:108110000120ADF81000A21C04A9A8DF002809D195
:108120002946204606F0A1FA002803D12946204618
:1081300007F0B6FA05B030BD0E20FBE7A002030041
:1081400070B588B00446002924D0002C22D00846FF
:108150002188102920D0502924D057291AD105462A
:10816000A188406906AAFFF718F8002812D1069ED8
:10817000307800280ED018216846FEF790F90120CB
:108180008DF800000195A088ADF808000396A96954
:108190006846884708B070BD08B02146BDE8704009
:1081A00004F088BE08B02146BDE8704004F066BF08
:1081B00070B504460D460846FEF77CF920806560E0
:1081C00070BD0078C0F340007047007800F00100F7
:1081D00070470A78027049784170022070470000A9
:1081E0000149085C7047000058010300084908B5C0
:1081F000085C0090684603F0D9FBD0F810050099A0
:10820000C84010F0010000D0012080F0010008BD3E
:10821000580103002DE9FC410646C0074FF0000558
:108220000ED0104F00240122385D00950023114626
:10823000019503F007FB641C042CF4D300F04EF806
:10824000B0070DD5074E0024361D0022305D0323F4
:1082500000951146019503F0F5FA641C042CF4D343
:10826000BDE8FC8154010300094908B5085C009091
:10827000684603F09BFBD0F80425009B0121994040
:1082800021EA0203C0F808351140C0F80C1508BDFA
:10829000540103000249085C012103F0DEBB000029
:1082A000540103000249085C002103F0D6BB000022
:1082B00054010300084908B5085C0090684603F0C3
:1082C00075FBD0F804050099C84010F0010000D0FB
:1082D000012080F0010008BD5401030010B5002406
:1082E0002046FFF7D7FF641C042CF9D310BD10B54E
:1082F00000242046FFF7D6FF641C042CF9D310BDE0
:1083000010B50246064B4FF0FF3000215C5C9442F2
:1083100001D1084610BD491C0429F7D310BD000047
:108320005801030070B50C4E0C004FF00005306092
:108330000BD0012000F06AF808B1022004E0002010
:1083400000F064F800B10B202070706810B9FEF7DF
:108350009CFB0546284670BD8022002010B50020F9
:1083600000F0DCF908B1062806D1012000F0D6F9AA
:1083700008B1062800D1002010BD00002DE9F0470B
:108380000D468146FFF7BCFF0446042836D2DFF8CD
:1083900074801B481C4EA8F10C0725B3012D0ED08C
:1083A000022D2BD104EB440030444578002D25D01C
:1083B000B968002922D02846BDE8F047084704EBF9
:1083C0004401755C0E44717849B10E4A4FF4004186
:1083D000093A8068FEF7A0FC08B987F80390B178E5
:1083E00008F80410E2E78068FEF7DAFC04EB4401C9
:1083F000314418F804008D78A842D7D0BDE8F08742
:108400005C0103007C22002054260020042801D2B5
:10841000FFF7ECBE002070470246144810B54088B4
:10842000042A11D04FF6FF71072A16D00A2A07D066
:108430000E2A19D1884217D0BDE8104007F018B8AD
:10844000BDE8104006F038BD132176DF0AE00028B1
:108450000AD0BDE81040FEF715BC884204D104489C
:10846000FFF771F80828F2D110BD00002822002083
:108470003C25002070B50023042810D20D4D00EBE0
:108480004004012A02D101290CD00022094E00EB40
:108490004000304461B1012906D0022906D00723EB
:1084A000184670BD0E30C2B22A55F9E74270F7E7A0
:1084B0008270F5E754260020044A01460020127914
:1084C000D20702D0084600F04DB870477022002055
:1084D00070B506461E480024C0E90161B00720D5EA
:1084E0000025012211462846FFF7C4FF6D1C0446F3
:1084F000042D02D2002CF4D013E094B940F266624D
:1085000004211448FEF744FB04000AD1FEF72EFBB9
:10851000040006D10F48104A0021001FFEF7BEFBE1
:108520000446F00712D00120FFF774FE74B9094821
:108530000A4A00210C38FEF7B1FB040006D10548B9
:10854000074A01210838FEF7A9FB0446204670BD02
:108550007022002068010300E9870200FDA30200E9
:108560005B6B02002DE9F05F6A4C054600266078DF
:10857000B34618B184F801B001F028FF664F4FF4FC
:108580007A694FF4C87A4FF00108182D62D2DFE8FB
:1085900005F0AC0C0C31404D62676B746B74BE7DA2
:1085A0007D7D7D7DACAFB2B5BEBE0020FFF782FE03
:1085B00000284FF0000008D0FFF76CFE022D02D11A
:1085C0004FF4E16008E0484606E0FFF76BFE022D3D
:1085D00001D1C82000E05046410CC0034FF4FA72AC
:1085E000801841F10001257052000023FDF7FAFECA
:1085F00001462AE00020FFF75DFE00284FF0000052
:1086000004D0FFF747FE4FF44870E5E7FFF74AFE56
:10861000DFE70020FFF74EFE00284FF0000002D0F9
:10862000FFF738FECFE7FFF73DFED4E70020FFF766
:1086300041FE00284FF0000002D0FFF72BFE01E0C2
:10864000FFF730FE257041F69A1100223868FEF7D8
:1086500063FB064646E00020FFF706FE257008E0B3
:10866000002051E025703DE084F801800120FFF7F3
:10867000FBFD002240F6CD41E8E784F801800120AF
:10868000FFF7F2FD00224FF48041DFE77868FEF744
:1086900087FB0646D5F1110000D02EB10220FFF76E
:1086A000F9FD84F802B01DE0012816D980B2C82176
:1086B0004843C117C90341EA5041C0034FF4FA725D
:1086C000801841F1000152000023FDF78BFE0146A6
:1086D00000227868FEF720FB06460220FFF7E2FD45
:1086E00084F802803046BDE8F09F01F06FFEB9E7E4
:1086F00001F06CFEB4E701F069FE04E001F066FEF3
:108700000020FFF7CFFD0120FFF7CCFDAAE7FFF720
:10871000EEFDA7E7702200205C010300012107F0B5
:10872000F7BA00002DE9F8430546861C00208DF8B5
:10873000000090460F464FF001096846FEF740FBE7
:108740001B4C20683860D4E90001401AA16804F28B
:108750001C47081A0EE00121384602F0DEFA01F04B
:10876000EBFF0146384602F0D8FAD4E90001401A7E
:10877000A168081A401C8642EDD8B8F1000F03D05A
:10878000052065F3891002E0062065F39F50A2687A
:108790002168114004EB8101C860206830442060EA
:1087A0009DF80000FEF730FB4846BDE8F883000066
:1087B000382E002030B482680468531C8360A154B2
:1087C000D0E901128A4202D330BC02F0E8BC30BCCE
:1087D00070470000034803C8814201D1012070475F
:1087E00000207047382E002000780221FFF7C6BD18
:1087F00005494FF0FF32082841F8202002D30844F1
:1088000080F8582070470000B8290020F0B54FF0DC
:10881000FF3512B10023082601E008230C260C4C7A
:1088200005E000BF54F823707F1C04D05B1CB342EA
:10883000F8D32846F0BD26185DB286F8305044F8CB
:108840002310002AF5D1E11881F85800F1E7000063
:10885000B82900200249084490F930007047000010
:10886000B82900202DE9F0438FB01E46DDF858905E
:1088700015460F00804602D10020FEF703FA15B915
:108880000020FEF7FFF91C216846FDF708FE0024D2
:108890009DF80000039440F002008DF800000120D4
:1088A00001948DF83600049405940694ADF8348054
:1088B0000C9430788DF8300070788DF831009DF888
:1088C0003200142120F00600801C20F019008DF8E1
:1088D000320007A8FDF7E3FD0DA807900CA808904B
:1088E0000748ADF82450ADF82640ADF828500B9756
:1088F0004B4607AA69460088AADF0FB0BDE8F0839F
:10890000E622002070B504464FF6FF750A46284659
:10891000AC4208D14FF480742146104605F02CFA81
:10892000A04209D070BDFF2CFCD82146104605F0AE
:1089300016FA08B1204670BD284670BD70B5084CC7
:10894000050009D010342168002907D0086820608C
:10895000496828468847F6E70834F4E770BD000008
:10896000A4290020054A012120B1012805D19170D8
:10897000FFF7E4BF51700020FAE77047A4290020F8
:108980002DE9F05F26484168F1B3DFF898B00E6832
:108990008146DBF8004087688078E11B21F07F4545
:1089A000ED1CB0B9DFF880804FF48030C8F8440384
:1089B000C8F804031120FDF7B9FE1120FDF7C1FE30
:1089C0004FF0010AC8F800A02F2003F0C9FE89F873
:1089D00002A0B54200D23546124BE8193C3320F0D4
:1089E0007F401860DBF800105A46091B21F07F41D8
:1089F000001B20F07F40C91C81420FD9106818600D
:108A00002F2003F0ADFE00E004E0BDE8F05F112090
:108A1000FDF7A2BEBDE8F05F05F0F0BDBDE8F09F38
:108A200078230020041501400010014073B58CB07C
:108A30000646002000900D9880B100246D46214626
:108A40000DA802F04CF930B1009805EB400084808D
:108A50000098401C0090641C142CF0D32C22694612
:108A60003046FDF703FD0EB070BD2DE9F0411788CB
:108A70000646B81D14460D46984202D90C20BDE8A2
:108A8000F0813188072206290AD34FF4486C4FF64B
:108A9000FF73614501D9994202D17088062801D23D
:108AA0001046ECE7604501D99842F9D1994203D0CC
:108AB000984201D08142F3D80520E8552088122140
:108AC000401C80B2208029542088401C80B2208025
:108AD0004119308806F0CAFF2188084480B22080FE
:108AE0004119708806F0C2FF2188084420800020C8
:108AF000C5E7FEF7C7B8000038B54A7A0F4B62B138
:108B000000220A725969002906D001228DF800203E
:108B1000ADF802006846884738BD0A7A62B19B68A2
:108B20004C68024619462046FEF7F6F80028F3D0B6
:108B3000BDE8384005F090BF5B68F1E7B42600203F
:108B4000F0B585B016460F4604461D4614220B4963
:108B50006846FDF78BFC0A488DF80870ADF80240B6
:108B6000ADF80A608DF80C50017800222046FEF71F
:108B70007DFF684600F058FA05B0F0BD74020300AE
:108B8000C8220020F0B587B0074600200490ADF859
:108B900010100590ADF812100190029001AA04A9DE
:108BA000384690DF060022D003F080FD114C0346CA
:108BB000012520883A4605EB00400F4903F07BF978
:108BC000BDF8042012B9BDF8060038B12088BDF800
:108BD000063005EB004009A103F06DF9BDF808204F
:108BE0002AB12088154905EB004003F05DF907B074
:108BF0003046F0BD842400204806030054686520F8
:108C00007265717565737465642054582F525820CD
:108C10007061636B6574206C656E6774682069733E
:108C200020746F6F206C6F6E672062792025752F1E
:108C30002575206F63746574732E0000940603001D
:108C400030B5044685B000211B4805F088F800289F
:108C50002FD00025204600F0FCFE68B1112812D06C
:108C600086281BD0A0F54051023903D0014620468A
:108C700005F0FAFE294607E005B029462046BDE882
:108C8000304001F037BD0121204601F033FD05B031
:108C90000021BDE83040084805F095B81422074986
:108CA0006846FDF7E3FBADF80240684600F098F92E
:108CB000E0E705B030BD0000912200209C010300D8
:108CC0007FB50C4610B1012004B070BD207900269C
:108CD00038B141F61D5501281BD0022826D00F209F
:108CE000F2E70220207102960396E068019069463F
:108CF00001A805F0DFFB50B102988188E18000886F
:108D00002081BDF80010029805F052FCDCE70A2033
:108D1000DAE70A4B6A460021A01D05F087FB38B14F
:108D2000064918398E61CE610A28CDD12846CBE795
:108D300002488188019805F03BFCF5E7B823002044
:108D40002DE9F0470025DFF88C803CE060680021C9
:108D500000EBC506012032789146FDF774FBD4E99B
:108D6000062300EA020701EA030C57EA0C0728D0A1
:108D700082438B434846C4E9062303F0AFFD3278B3
:108D80008246914601200021FDF75DFBD4E90423D2
:108D900000EA020401EA03074A4650460021FDF7B3
:108DA00052FB44404F403C430BD17078012801D026
:108DB000012100E00021726881EA0A010AB14846F7
:108DC00090476D1CEDB298F8000044468542BDD333
:108DD000BDE8F0875823002010B50021024801F0BB
:108DE000B7FF80F3100010BD543200200E4910B5BB
:108DF0000A784C780023A24212D0521CD2B20A70D8
:108E0000022A00D10B70084A0B780C3252F823204A
:108E100002608868104420F07F408860012010BD07
:108E20000360002010BD00007823002013460A468E
:108E30000021FFF785BE00002DE9F843104D0F46D5
:108E400080461E4691466946286801F0DCFE040013
:108E500014D01C21FDF723FB01202071C4F81490CD
:108E6000380BC4F80080C4E902606946286801F044
:108E7000EBFE05F06FFA0020BDE8F8830420FBE765
:108E80006003030010B503780022072B06D2DFE849
:108E900003F005040610202930000A7010BD0123DC
:108EA0000B7003898B818388CB81C06888600A74CA
:108EB00010BD02220A7002898A818288CA81C26832
:108EC0008A60807D062802D00020087410BD012031
:108ED000FBE703220A70C2888A810289CA81C068BE
:108EE000886010BD04230B70C0888881CA818A60A5
:108EF00010BD0520087010BD70B5064D0646002453
:108F000055F8241009B130468847641C042CF7D367
:108F100070BD0000B82B002030B50446006887B053
:108F20000D46806800281FD018216846FDF7B7FA63
:108F30000195A0680590207910B1012810D107E0B3
:108F400001208DF8000020690290E068039005E0A0
:108F500002208DF80000E068000302906069049030
:108F6000206881686846884707B030BD70B586B014
:108F700015460C00064619D0112C17D0082C15D018
:108F800014216846FDF78BFAADF80260304601F017
:108F900073F8ADF804000D2C0AD0862C1CD00720E5
:108FA0008DF800000294684600F04CF806B070BDE1
:108FB00003208DF8000025B12878C00701D00120DA
:108FC00000E002208DF8080000208DF80C0041F22E
:108FD0000110ADF80A00E6E706208DF80000E2E790
:108FE00010B50446408801F047F8A08002480168A7
:108FF0002046BDE810400847982200202DE9F041A6
:1090000007460024064E074D05E000BF56F8241021
:1090100038468847641CE8788442F7DBBDE8F08175
:1090200058290020B822002010B50446408801F0DD
:1090300023F8A080024801682046BDE81040084798
:109040004802030001490968084700009C02030028
:1090500070B586B0044614216846FDF720FAA08951
:109060000125A0F54040ADF8040020782A4E0628DE
:1090700033D2DFE800F0320303032C48A08900F06C
:10908000BDF930B9E08943F6FE71A0F54040884251
:1090900023D8A07B8DF80800207803280FD000206B
:1090A0008DF80900A0680390606850B109208DF820
:1090B000000060680490684604F0A8FA0DE0012002
:1090C000EEE708208DF800008DF81050F3E7A08936
:1090D00000F094F908B1E08930B17078002801D02F
:1090E00004F0C4FB06B070BD606820B10B208DF8A1
:1090F00000007570DFE70A208DF80000BDF804005D
:1091000004F03EFCF5E713208DF800004FF6FF70E9
:10911000ADF80400CFE70000A822002038B50446CF
:109120000E480078A8B1A4F57F40FF380FD06846FC
:1091300005F042F878B10521017001210171C48068
:10914000684605F047F805F0F7F8002038BD042020
:1091500038BD022038BD082038BD0000C0230020E3
:109160000C4808B5007888B1684605F025F878B154
:1091700006210170684605F02DF80748017809B10D
:109180000121017305F0D8F8002008BD022008BDB8
:10919000082008BDC02300207C2C0020F0B587B03B
:1091A00014216846FDF77BF92B4C207818B16846EE
:1091B000FFF7A2FE4EE0201D01F0ACFDB8BB4FF062
:1091C000102041690004026940694B1C01D100FB79
:1091D00002F1224800220161A1F54051C1602049FD
:1091E00002F06CF9002820D11F481C238C221D4955
:1091F000006801F0F5FC03F0F9FF051E14D0022809
:1092000012D000270126062D12D005A804F0D4FFA5
:1092100088B106700C2D18D2DFE805F0170F170F74
:1092200017161716171113110B2007B0F0BD11E018
:1092300026706760BBE70820F7E7077105E00321A8
:1092400000E00221017100E0067105A804F0C2FFF0
:1092500005F072F80020E8E7C02300207024002009
:1092600070030300C82B0020D802030038B50400A7
:1092700014D0694605F01EF9A0B1BDF8000000EB5E
:109280008001094800EB8100C16849B1A17A39B178
:10929000C168491EC1600020A07238BD052038BDDC
:1092A000062038BD0A2038BD542C00201FB501A966
:1092B000684605F0BBF804B010BD07B513460A4672
:1092C0006946002005F0B2F80EBD07B513460A4600
:1092D0000021684605F0AAF80EBD20B119B100685A
:1092E000086000207047052070470000F8B50D4663
:1092F000040018D0BDB1694605F0DCF8A8B1BDF88E
:1093000000000B4900EB800001EB800001210C30D4
:10931000666801F002FD2E6060680C306860012014
:10932000A0720020F8BD0520F8BD0A20F8BD00009D
:10933000542C002018B10323002206F0E1BD0520C3
:1093400070470223002206F0DBBD12B1022306F0B3
:10935000D7BD052070470000084910B50A69042AE6
:109360000AD0074A096942F8210004480121103057
:1093700001F0D3FC002010BD0C2010BDA023002064
:10938000B82B002038B5044609480D46007858B17E
:1093900064B16946284606F0ADFE002803D1BDF849
:1093A00000102180658038BD022038BD052038BD01
:1093B000C023002010B504460E48007898B1A4B12F
:1093C0002188022913D80C4A01EB810002EB8002AC
:1093D00060885289C31C934209D806F07FFE0020A2
:1093E0002080608010BD022010BD052010BD04202B
:1093F00010BD0000C0230020542C002043F6FE7155
:10940000A0F54040884201D80120704700207047F5
:1094100010B504460078182802D1FEF703FB20702F
:1094200010BD10B504460078182802D1FEF7FAFAEC
:10943000207010BD70B50D460446B0F89810D0F8F5
:1094400094000122FDF78EFF00B1057004F13C028B
:1094500004F1940104F1540072DF70BD70B513463D
:10946000002206461546862902D0112902D002E0C4
:10947000012200E001250D4C73B1A179FEF7F6FA47
:109480002A4661793046FEF7F1FA0022A17830468B
:10949000FEF7ECFA002203E0A178FEF7E7FA2A468D
:1094A00061783046BDE87040FEF7E0BAD022002077
:1094B000F7B517460E0011D00098002560B10024C2
:1094C0002146684601F00BFC18B1A0B23946B047FE
:1094D0006D1C641C142CF3D32846FEBD0020FEBD79
:1094E000406804F089BE00000EB516A19DF8080082
:1094F00020F00F00401C20F0F00010308DF8080024
:109500000A2202A87CDF08B1FDF7BCFB4FF44070D3
:1095100078DF08B1FDF7B6FB00204FF4C87100906A
:109520000190ADF80400ADF800104A00ADF802203B
:10953000ADF8061068467ADF002801D0FDF7A2FBDF
:109540000EBD00004E6F726469635F4854530000A3
:1095500070B508B1012070BD1B4C0025207B08B1FF
:10956000257301E000F0A4F8207808282AD2DFE86B
:1095700000F02904080C10291422BDE8704000F006
:1095800025B8BDE8704000F081B8BDE8704000F03B
:1095900063B8BDE8704000F03FB8062020706088D6
:1095A000094900EB8000283901EB80004068BDE8E4
:1095B000704003F0FBBD072020706560BDE870407F
:1095C00003F002BE0F2070BD7C2C00201149F0B4C6
:1095D0008A1C00200346A1F128050C18A67A4EB17A
:1095E000A37200EB800405EB8404E66816B9247CC2
:1095F000012C0AD0401C80B20228EED30B704B80A5
:109600004B60F0BC41F61D5070471080F0BC00F07C
:109610003DB800007C2C00200C48418801EB810201
:10962000A0F1280101EB8201CA6852B10521017045
:10963000074802218180016800230122054801F0CA
:10964000A7BE042202704968F6E700007C2C0020C7
:10965000C82300207024002038B50A490848032494
:109660000B684268898803EB810153880470DB1C16
:1096700000201B0400909B0B034801F0F9FF38BD4C
:109680007C2C0020C823002070240020074910B53E
:109690004888091D04F05EFF18B1BDE81040FFF7CF
:1096A000DBBFBDE81040FFF7B7BF00007C2C0020F7
:1096B000F0B51F481F490125067802248B88A0F1C8
:1096C0002802082E19D2DFE806F00418181B222FF2
:1096D0002F170189491C01810021418080F80C105D
:1096E00001EB810312F8233043B100234418491CD5
:1096F00089B2A3720229F3D30570F0BD0123F5E707
:1097000042685288D21C1A448A800470F0BD468890
:109710000D6806EB860602EB860256680E60556001
:1097200013818C80062100E007210170F0BD00004C
:109730007C2C0020C823002030B501888488224D6D
:1097400085B0502924D0522902D0542931D103E0C8
:10975000204600F09BFF2CE014221C496846FCF7D1
:1097600085FEADF80240204600F086FCADF804000E
:1097700000F022F9002269792046FEF777F90022ED
:1097800029792046FEF772F96846FFF729FC10E0B8
:10979000017B01290DD1817A01290AD10089A0F527
:1097A0002451023905D10121204600F0A3FF06F023
:1097B000CDF900220649E878FEF7FAF805B0BDE8D1
:1097C000304005F0F1B9000090220020C4010300F0
:1097D000296F020010B50446007800280FD1608878
:1097E00000F054FF608800F081F9002807D0044998
:1097F000608801220979BDE81040FEF737B910BD35
:109800009022002010B5124C00202070FEF70AF9BB
:10981000A070FEF707F9E070FEF704F92071FEF77B
:1098200001F96071A17818290FD0E17818290CD0BE
:109830002179182909D0182807D00121601C04F0CB
:1098400087FA01202070002010BD032010BD000009
:10985000902200207CB50446007808282FD1607A39
:1098600038BB207A4FF6FF7501280DD0072802D0AB
:10987000082824D11EE0A08800F03CFBA8421ED09E
:10988000012100F037FF1AE0A0886A46012103F0A9
:10989000D5FD70B90198007858B1A08800F02AFB76
:1098A000A8420CD0084901220979FEF7DFF805F03B
:1098B0007BF904E004480021401C04F084FABDE870
:1098C0007C4006F043B900009022002010B5044609
:1098D0000A4841782046FEF7B1F868B108480021EF
:1098E00001EB410200EB82025288A24201D1C8B2D0
:1098F00010BD491C1429F3D3FF2010BDA222002063
:109900004827002070B5094D094E002404EB44009F
:1099100005EB800071784088FEF790F820B1641C58
:10992000142CF3D3FF2070BDE0B270BD4827002097
:10993000A22200202DE9F0418046024601200021AC
:10994000FCF781FD1A4F05460E467868FDF728FAA8
:1099500000280CD1174CD4E9062110462A4001EA10
:1099600006031A4305D0A843B143C4E90601BDE884
:10997000F081404602F0B2FF30B1D4E9040128433F
:109980003143C4E9040105E0D4E90410A943B0431C
:10999000C4E90410D4E9060128433143C4E90601AF
:1099A000A1687868BDE8F0410022FDF7B5B9000074
:1099B000C0020300582300201CB5054AD2E9021258
:1099C000CDE900120022694603F05DFD1CBD0000D8
:1099D000DC01030003484FF6FF7181800121017013
:1099E000002070479C2200202DE9FC41804600F0B9
:1099F00043FB002403250127A0F57F412646FF39BC
:109A000008D06A46082103F019FD18B90198841D91
:109A10008688056832462B4621464046B1DF042839
:109A200004D0082804D00B2808D002E0112000E060
:109A30000020002F00D10B20BDE8FC810027A807E3
:109A400001D50125E6E73443F5D000242646032559
:109A5000E0E72DE9FC41804600F00EFB0646A0F54C
:109A60007F40FF380ED001252A466D1C0027ADB27D
:109A70006B460821304603F00BFD040006D0072C8E
:109A800025D025E043F20200BDE8FC8101990323C3
:109A90000A1D0B604046891DB2DF040004D00C2C67
:109AA00009D0052C09D009E032460821104603F000
:109AB00065FD04460CE0012700E000240821304643
:109AC00003F048FD00B10324002FCDD100E00C24A9
:109AD0002046D9E704488088A0F57F41FF3901D0AE
:109AE00005F06CB8704700009C2200200EB502A95A
:109AF000019100F0C1FA6A46012103F09FFC08B110
:109B000000200EBD019800780EBD00002DE9F04147
:109B100007464FF6FF760A48B3DF10B10320BDE8D1
:109B2000F081074C43F20305A41E32466188384693
:109B3000AFDFA842F3D16088401C6080F5E70000E9
:109B40009E220020428800EB82020C328A4201D918
:109B5000022070478188A1F57F42FF3A03D0008838
:109B600008B10020704701207047884204D2006885
:109B7000401C01D0012070470020704770B59CB098
:109B80000024064608949DF820000D4620F00F00A2
:109B9000401C20F0F00010308DF820009DF82200CD
:109BA00020F00600801C8DF8220008798DF8210035
:109BB0001C2101A8FCF773FC9DF80400029440F0FE
:109BC00020008DF8040008A80494CDE90540012088
:109BD00007948DF86E0042F61C20ADF86C000094DE
:109BE0009DF8020020F00600801C8DF802006979C3
:109BF0008DF80010A9798DF8011020F0180040F0C0
:109C000001008DF80200142109A8FCF748FC20216E
:109C10000EA8FCF744FC1BA80990CDF828D016AA82
:109C20000EA9304600F010F8ADF82C001420ADF865
:109C3000300016A8ADF82E400D90B088B31D09AACB
:109C400001A9AADF1CB070BD30B50878002300B1AF
:109C500001234C780CB143F0020320B143F001031F
:109C60000C7B086901E00C79886864F31F60507010
:109C7000050A9570050CD570000E10714C78052002
:109C800084B18C8A5471240A94718C7DD471CC7DFA
:109C900014720C7E54724C7E94728C7E43F00203DC
:109CA000D4720C208C7824B1097F115443F0040342
:109CB000401C137030BD000070B5002504460570CF
:109CC00001206070A0701549154804F040FFA91EDE
:109CD0002171A060217300EBC0000521B0FBF1F001
:109CE00000F5486020610E48143841686161806861
:109CF000A061042020770A48103881791B31C9B24D
:109D000081713B2908D93C3981714179491CC9B21B
:109D100041713B2900D9457170BD00000426002027
:109D20003C220020F0B58FB00D4606461C2101A84C
:109D3000FCF7B5FB9DF80400002440F002008DF80C
:109D40000400012705948DF8367042F61D20ADF809
:109D5000340000949DF80200029420F00600801C5C
:109D60008DF80200049406940794E9798DF80010A8
:109D7000297A8DF8011020F019008DF802001421C5
:109D800008A8FCF78CFBA87A8DF838000DA808907D
:109D9000ADF828700EA8CDF824D0ADF82A40ADF863
:109DA0002C700C90B08806F10E0308AA01A9AADF56
:109DB0000FB0F0BD3EB5027802230C46B3EB520F54
:109DC00017D1B0F80110ADF80010C1788DF802106D
:109DD0008188ADF8041080798DF8060002AA01A9E7
:109DE0002046FCF791FE032202A96846FCF769FBB6
:109DF00008B100203EBD01203EBD000010B50C465C
:109E0000FFF764FDFF280CD0074900EB400001EB91
:109E10008000416821600189A180807AA0710020C2
:109E200010BD052010BD00004827002070B5018836
:109E300090B0102959D1011D2C226846FCF716FB61
:109E40009DF804004FF6FF76032134466D46B1EBD2
:109E5000500F2AD003F048FC9DF8040040080ED0B3
:109E600001280CD0022820D118E00D99281D1131AD
:109E7000FCF7E6FD18B100BFBDF82C4015E00CAAB8
:109E80000BA9072003F004FC0028EED10DE00D998A
:109E9000281D491CFFF78EFF0028EDD10CAA0BA945
:109EA000072003F0F5FB0028F1D1BDF80000291DC3
:109EB00000F040FEB44218D0BDF80000214600F08A
:109EC000C5F8BDF80000ADF82E000020ADF8304018
:109ED000074E8DF82C000BAD044600BF56F8241039
:109EE00028468847641C022CF8D310B070BD0000CF
:109EF000F0010300094A002101EB410332F823304D
:109F0000834205D101EB410002EB8000408870479D
:109F1000491C1429F0D34FF6FF70704748270020E2
:109F20003EB50C46054603F0DFFB0BE0BDF8000034
:109F3000A04207D02846029900F02EF810B1BDF8D3
:109F400000003EBD01AA6946072003F0A1FB0028DE
:109F5000ECD14FF6FF703EBD10B50D4C18200D4AE8
:109F6000607000204FF6FF7100EB400302EB8303AB
:109F7000401C59801428F7D3FDF754FD6070182851
:109F800003D001202070002010BD032010BD000070
:109F9000A2220020482700202DE9F0410C4605466A
:109FA00000F1110701F111061022491C401CFCF7B9
:109FB00088FA48B9681C00F0F9F928B1601C00F073
:109FC000F5F908B1012400E0002431463846FCF7D9
:109FD00037FD3B780222B2EB530F0CD00321B1EBDB
:109FE000530F08D03378B2EB530F04D0B1EB530FBB
:109FF00001D0012100E00021084201D18C4302D0B0
:10A000000120BDE8F0810020FBE7018811B942186A
:10A0100092780AB101207047491C0829F7D3002023
:10A02000704710B50C460346FFF7EFFF00280AD033
:10A0300018882188884205D10822A11C981CFCF7A9
:10A0400040FA08B1002010BD012010BD03F0ECBCA7
:10A0500070B50446FFF74EFF0546204603F0F1F9C0
:10A060004FF6FF7104468D4203D014B9284603F021
:10A07000DBFC204670BD000010B5FFF727FCFF2871
:10A0800005D0044900EB400031F8200010BD4FF628
:10A09000FF7010BD482700203EB5044603F024FBA6
:10A0A0000EE0019920464631FFF7BBFF28B9019920
:10A0B00020462A31FFF7B5FF10B1BDF808003EBDBC
:10A0C0006A4602A9072003F0E3FA0028E9D14FF617
:10A0D000FF703EBD10B50A4941600A4800F01AFE03
:10A0E00058B902F06DFA07491C238C220874044801
:10A0F0008C39001F006800F073FD002010BD0000C7
:10A1000064030300182D00202DE9F0412D4F002598
:10A1100018B17D600120BDE8F0810879012258B1B5
:10A12000294E01280CD0274C4FF002080834022891
:10A1300021D0032842D128E00A7103F045F83BE022
:10A140005FF0000000EB800116F82110022908D012
:10A15000401C80B20228F5D33A707D6041F61D5054
:10A16000D9E700EB800006F8205006EB800040683D
:10A1700003F01CF820E00D71A4F8048000230122F4
:10A180001248216801F004F916E00D71206803F00F
:10A190000DF80D4923682831498801EB810206EB4F
:10A1A0008201D1F804C0C4F800C04B60A3880B81C1
:10A1B000A4F8048006F822500028ACD07D600E2060
:10A1C000A9E70000C0230020542C002070240020A8
:10A1D0000146034802888A4200D0002070470000F0
:10A1E000A02600202DE9FC5F0E008346DDE90C4728
:10A1F000C6F1000098469246814600D408460125E3
:10A2000003E000BF90FBFAF06D1C5045FADAA84558
:10A2100000D9454624B1002E01DB780700D5641E25
:10A22000B80702D5B8F1000F0AD0F80708D13CB141
:10A23000A54205D220215846641EFEF7BBFAF6E778
:10A24000002E02DA4E462D2102E0780703D52B219D
:10A250005846FEF7AFFA07F0030002280BD1B8F119
:10A26000000F08D13CB1A54205D230215846641EEA
:10A27000FEF7A0FAF6E7CDE90047434652463146DD
:10A28000584605F009FCBDE8FC9F000070B50D467E
:10A29000044600684FF4887102F028FA4FF4907178
:10A2A000206802F023FA4FF49271206802F01EFA3F
:10A2B0004FF4A271206802F019FA20681249C0F820
:10A2C000041320686907000B40B2090E002806DA63
:10A2D00000F00F0000F1E02080F8141D03E000F111
:10A2E000E02080F8001420680121000B40B200F04B
:10A2F0001F0291404009800000F1E020C0F8801268
:10A30000C0F8001170BD00001003020002460020DA
:10A310001268930702D0530702D47047500714D530
:10A3200002F00300012802D002280CD105E0C2F39C
:10A3300083100B68801C184404E00223086803EBB8
:10A3400092521044086001207047086800EB925355
:10A35000C2F38910401CEEE70248007A002800D0C2
:10A3600001207047182D0020F0B58488A51894426C
:10A3700000D82246A41AC288D6189A4200D813469A
:10A38000D21A4B880788BB420CD34088834209D835
:10A390008888A04206D3A84204D8C888904201D336
:10A3A000B04201D90020F0BD0120F0BD0021425C87
:10A3B0000AB101207047491C1029F8D300207047CA
:10A3C000800701D000207047012070470A4810B56F
:10A3D000807860B1002401E0022C06D02046FDF711
:10A3E00059FF641C042CF7D310BD0324F6E7BDE825
:10A3F0001040FDF773BF0000702200200348017970
:10A40000C90702D00078FEF7ADB87047702200206F
:10A410001721018041800021017141711B2181714F
:10A42000C17170472DE9FE4F2B4D984691460F00A4
:10A43000824601D000260DE0684600F0A7FB6A4680
:10A440000021504602F069FF2878009E10B99DF85F
:10A45000090098B14A463146504604F09DFE044634
:10A46000014600225046FEF7F9FF0D2C32D008DCE1
:10A4700084B3082C2ED00B2C0BD12BE00520BDE88B
:10A48000FE8F112C10D0862C1AD0A4F54050023823
:10A4900020D00325B8F1000F04D0324621465046A3
:10A4A000FEF764FD2846EAE73A4629795046FDF76B
:10A4B000DDFA4A46E9785046FDF7D8FA0025E9E783
:10A4C0003A4629795046FDF7D1FA4A46E97850468E
:10A4D000FDF7CCFA2546DDE7D02200202DE9F0413A
:10A4E000204F0E46154604463978FDF7A7FA002896
:10A4F00035D0204602F008FF50B32046FFF7BCFDE0
:10A5000080462046B978FDF799FA08B1012700E0A6
:10A510000227204603F0A0F90028404602D0FFF7AA
:10A5200097FD0DE0A8F57F41FF3909D0072103F021
:10A5300011F8010004D0052902D0204604F0A8FA41
:10A540002B46324639462046BDE8F041FEF7F8BAC0
:10A550002A4631462046BDE8F041FEF767BCBDE81B
:10A56000F0810000C822002070B5094D0646E97848
:10A57000FDF764FA044629793046FDF75FFA014693
:10A5800022463046BDE870400123FFF74BBF000074
:10A59000D02200202DE9F047394E002780463D4665
:10A5A000DFF8E090D6F804A057E003D00446D0F8D6
:10A5B0001C8035E099F8002002EB4201521CD2B217
:10A5C00089F8002009EBC10199F80230091D9A426F
:10A5D00001D189F8005048680A780446012A12D04F
:10A5E000022A02D0032A3BD108E004F0BBFF00B1ED
:10A5F0000127257434E00574C06900E07068002804
:10A60000F9D170602CE0207C50BB88686060C8681D
:10A61000A0600869E0604869A061F07800B16560F9
:10A620006268B168184B501A20F07F40984202D2FD
:10A63000A168084406E0881AA16820F07F408142A2
:10A6400002D9081A206000E0256065600120A5603D
:10A6500020742046E56104F067FFB8F10000A4D142
:10A6600099F8001099F801008142A3D117B97168D7
:10A67000514502D00120BDE8F0870020FBE7000033
:10A6800078230020942A0020FFFF7F0030B585B09A
:10A690000546002414216846FBF701FFA5F57F401D
:10A6A000ADF80250FF3815D02846FFF79DF998B154
:10A6B0000B2815D0112811D0A0F54051023903D034
:10A6C0000146284604F0D0F909482246C1782846B8
:10A6D000FDF7CCF905B030BD0E2002E00124F3E710
:10A6E0000F208DF800006846FEF77AFCECE70000CA
:10A6F000902200200A4602498978FDF7B7B9000088
:10A7000090220020F8B5054600780C46002620422D
:10A710000FD100208DF800006846FCF751FB287827
:10A72000204202D12043287001269DF80000FCF74A
:10A730006BFB3046F8BD00002DE9FF4100262348A1
:10A7400000F0E5FA2148001F074600F0E0FA204C2F
:10A7500060680090A56800E000986946284004EB16
:10A7600080000C30FFF7D2FD0028F5D101AA009936
:10A7700001EA050304EB8303491CDB6842F820303F
:10A78000401C00910228F2D3019800F00300012838
:10A790000BD0022810D10198032101EB90500099B1
:10A7A000BDF80A6001EB900005E00198BDF80A6071
:10A7B000C0F3831008440090384600F0A5FA08B1B1
:10A7C0000098606004B03046BDE8F081503200204F
:10A7D000382E0020ACB04FF40041002001F0D2FB35
:10A7E00008B1FCF74FFA01F03DFAFCF76BFA08B13B
:10A7F000FCF748FA534A01215348FCF74FFA08B1D5
:10A80000FCF740FA51490320FDF762FE08B1FCF75E
:10A8100039FA69460020FDF785FD08B1FCF732FAE8
:10A820009DF80000022871D05FF0000601F0C8FC1E
:10A8300008B1FCF727FA01F077FE08B1FCF722FA1D
:10A84000002469460120009401F0FCFC08B1FCF7EB
:10A8500019FA684601F07AFD08B1FCF713FAFEF721
:10A8600043FE00213A4800F0E8FA08B1FCF70AFA82
:10A8700004F050FAAC216846FBF711FE02208DF877
:10A88000000001208DF80200062103258DF87C00D0
:10A890008DF80310ADF8105028202E492290059114
:10A8A00044F2506023902C48299029486946203072
:10A8B000FCF787FD08B1FCF7E5F9254801212030B8
:10A8C000FCF77CFD04F0F8F81C216846FBF7E7FD77
:10A8D0004FF42030CDE900404FF4702002901F4823
:10A8E00005901F488DF80C500690ADF80E408DF87D
:10A8F00010406846FDF708F808B1FCF7C3F903F00B
:10A90000A1F81848008805EB004000E017E016A108
:10A9100001F0C6FA0C4800224FF480310068FCF7C1
:10A92000FBF908B1FCF7AEF93046FCF7C9F800BFF7
:10A9300001F0A6F90028FBD101F056FCF8E701264A
:10A9400074E700004D7102005001030019840200F9
:10A950001C250020602200204DCE020099CE02006E
:10A96000F38A0200BC2400204865616C746820549E
:10A970006865726D6F6D65746572206578616D7064
:10A980006C6520737461727465642E0070B5144632
:10A9900082880E4605462088111D0144921C99426A
:10A9A00001D8FE2A01D90C2070BD521C32542088D7
:10A9B000FF21401C80B2208031542088401C80B28E
:10A9C00020808119288805F051F82188084480B238
:10A9D0002080AA8842B1A96841B13044FBF746FD06
:10A9E0002088A98808442080002070BD072070BD01
:10A9F0002DE9F047C7880446181D16468946B0FB66
:10AA0000F7F1B0FBF7F207FB12009A193A44D21C97
:10AA1000B2FBF7F2DDF820A001E02468491E00290E
:10AA2000FBD13D1A8846B54216D818E0BAF1000F9E
:10AA300005D0211809EB08002A46091D04E020442E
:10AA400009EB08012A46001DFBF710FD00202468D1
:10AA5000761BA844B74201D9354600E03D46002E9A
:10AA6000E4D1BDE8F087000030B5024659B101F0ED
:10AA7000B5FA0021074C09E004EB810315685B88F7
:10AA8000AB4202D11160002030BD491C8142F3D39A
:10AA9000052030BD84240020F8B50F460178144607
:10AAA0000546012901D1687830B12088821C9A427C
:10AAB0002DD8012902D006E00720F8BD69780144AD
:10AAC000891C994223D8181A801E86B2ADF80060FE
:10AAD0002188B81C084469467DDF0028EDD128781C
:10AAE000022805D1BDF80010B14201D809210AE0C1
:10AAF0000821012805D16878B04202D8ADF80000DD
:10AB000001E0ADF80060BDF80000FE2801D90C207E
:10AB1000F8BD2288401CB8542088401C80B2208098
:10AB200039542088401C2080BDF800100844208043
:10AB30000020F8BD70B505460C004FF0FF0020D096
:10AB40004FF6FF76B5421CD00E48012241782846C8
:10AB5000FCF78CFF2846FEF7B9FEFF2803D1FEF76D
:10AB6000D1FEFF280DD0084B00EB400203EB820121
:10AB70004D8023F8226022684A60A2880A81A27967
:10AB80008A7270BDA222002048270020034A0021BB
:10AB90009268C0E90021816070470000D022002047
:10ABA00070B54FF6FF750E46A84201D1002000E0B7
:10ABB000401C84B208E02146304603F0F8F808B1A2
:10ABC000204670BD641CA4B2FF2CF4D9284670BD89
:10ABD00010B5FBF76AFB08B1002010BD112010BDB5
:10ABE00010B531B1B2FBF3F403FB14241CB10920FE
:10ABF00010BD0E2010BD0160002141608160828186
:10AC0000C381084610BD70B50C460546FBF702FB34
:10AC1000002802D021882868084470BD10B50A8831
:10AC200049888A4203D1FBF737FB012010BD002081
:10AC300010BD70B50C460546FBF711FB002802D08D
:10AC400061882868084470BD10B50A8849888A421E
:10AC500003D1FBF7FBFA012010BD002010BD01F06D
:10AC60001F0301229A40D243490900EB810011469B
:10AC700000F059B80A4601F01F030121994010B5B0
:10AC800052090C4600EB820000F05DF8204000D035
:10AC9000012010BD2DE9F04180460D460024481EDC
:10ACA000012101EB501716E058F82400C04390FA38
:10ACB000A0F0B0FA80F020280CD200EB4416AE428F
:10ACC00008D231464046FFF7D5FF0028ECD1304688
:10ACD000BDE8F081641CA742E6D82846F8E74A0997
:10ACE00050F8220001F01F0201219140084000D0DD
:10ACF0000120704701F01F0301229A40490900EB2F
:10AD00008100114600F029B8002100F017B8012198
:10AD100000F023B8012100F016B808B56A46FBF729
:10AD200010FB009808BD08B56A46FBF7F0FA0098DA
:10AD300008BD08B56A46FBF704FB08BD08B56A46BE
:10AD4000FBF7E5FA08BD08B56A46FBF7D3FA08BD7C
:10AD500008B56A46FBF7C2FA08BD08B56A46FBF7B4
:10AD6000C9FA009808BD08B56A46FBF7F7FA0098DB
:10AD700008BD38B5044600258DF800506846FCF73C
:10AD80001FF821686268086890420ED9401E08606A
:10AD90000178A38AE26801FB0325227A2168101A50
:10ADA000C0B20A79824200D208719DF80000FCF717
:10ADB0002BF8284638BD38B5054600208DF8000030
:10ADC0000C466846FBF7FCFFE868A98A201AB0FB2E
:10ADD000F1F12A681068431C136001709DF80000AF
:10ADE000FCF712F838BD10B530B1017A426803683B
:10ADF000891AC9B21A6006E00E2010BD03681A68ED
:10AE0000541C1C601170491EC9B2F7D200680021A1
:10AE10000171084610BDC20800F007030120895CDB
:10AE200098400840704710B5C20800F00703885CDE
:10AE300001249C402043885410BD10B560B10161CD
:10AE4000172120F8021B20F8021B1B2100F8021B0F
:10AE5000FFF7DEFA002010BD0E2010BDF0B585888A
:10AE600093B00C46002D39D1018800263E4F24298D
:10AE70003BD006DC102909D011290CD0232958D148
:10AE80004FE03A290BD0552953D129E001462046FD
:10AE900002F046F84DE0A01DFFF7BAFA49E022465D
:10AEA000408934F8061F814200D808466080172880
:10AEB00000D217206080106970B1607960B1D7E965
:10AEC0000001CDE90301ADF80E506088ADF8100027
:10AED000136903A9104698476671267113B0F0BD37
:10AEE0000146204602F06CF823E0011D2C2206A842
:10AEF000FBF7BCFABDF81800BDF81C2004EBC0013C
:10AF00004A732269AAB1D7E90423CDE90423ADF835
:10AF10001200487B8DF814002269204604A990474E
:10AF200007E0017A207B884200D201462846FDF7DF
:10AF300029FEA07A0028D1D0E1882846A5DF012586
:10AF400070B11128CAD001F0B1FB0246074808A130
:10AF5000008813B005EB0040BDE8F04000F0A4BF4E
:10AF6000A672E572BAE70000F8010300842400200D
:10AF700073645F626C655F67617474635F65786357
:10AF800068616E67655F6D74755F72657175657315
:10AF90007428292072657475726E65642025732E7D
:10AFA0000000000020B10278DE2A03D0082070479C
:10AFB0000E20704741800020704760B159B102787F
:10AFC000DE2A0AD009684160DE2101704FF6FF7168
:10AFD0004180002070470E207047082070477FB5E1
:10AFE000054600294DD0002D4BD008780C46DE28B0
:10AFF00047D1A8886188884202D1204604F0F6FD36
:10B000002888012825D002283BD011283AD0512881
:10B0100037D135F8040F6188884232D1A978A81C4D
:10B0200002292ED1017A042903D0062901D005294D
:10B0300027D10021009102228DF8002001914FF4C8
:10B04000C07202910391ADF80420007A05280FD058
:10B0500010E0297A2046012913D1A988428891421B
:10B060000FD10121017204B0BDE8704004F0BEBDF3
:10B07000ADF8041028886946B0DF002801D0616867
:10B0800088477FBDA88861888842FAD14FF6FF7053
:10B0900060807FBD00F180400068002800D0012062
:10B0A000704708B500F18040002101600068009001
:10B0B00008BD000070B50B4C207808B185250FE065
:10B0C0000020A06060602061E060074801F02AFB7A
:10B0D000054601F075FA08B901F00EFB0120207059
:10B0E000284670BDA42900206589020038B50025D6
:10B0F0008DF800506846FBF763FE074CE068401E81
:10B10000E060E06810B901F01DFBA5709DF800003B
:10B11000FBF77AFE38BD0000A4290020F0B50546F3
:10B120000478154889B0164640F82420124A086968
:10B130000832A2F10C0742F82400487F385520223B
:10B140006846FBF793F904942878385C48B10EB14F
:10B150000A4A00E000226946281D01F06FFD09B08F
:10B16000F0BD0EB1064A00E00022694605F10C0070
:10B1700001F036FCF3E700003423002049F9020017
:10B1800095F702000FB408B50399002904D004AA6A
:10B1900000926A4600F00FF801B05DF814FB10B59C
:10B1A00082680446002A05D0D4E904032168984740
:10B1B0000020A06010BD2DE9FC4791460C008046A0
:10B1C00076D014F8011B39B125290ED04046FDF781
:10B1D000F1FA20780028F4D198F80C00002867D004
:10B1E0004046BDE8FC47FFF7DABF00200122217886
:10B1F0002B291BD02D2902D0302908D102E040F0A4
:10B20000010001E040F00200641C002AEFD100259B
:10B210002A290ED02178A1F130020A2A11D205EB99
:10B22000850201EB4205641C303DF1E740F004006B
:10B23000EAE7D9F800100B1DC9F800300968641C52
:10B240000D44217800232E290BD114F8011FA1F100
:10B2500030020A2A05D203EB830201EB4203303BA2
:10B26000F3E76C290DD068290BD0692921D00BDCBC
:10B27000252918D0582931D063290ED0642915D139
:10B2800017E014F8011FECE7702969D0732932D058
:10B2900075291BD0782909D120E0D9F80000011DBB
:10B2A000C9F8001001784046FDF784FA641C90E765
:10B2B0006CE0D9F800100A1DC9F800200968CDE932
:10B2C00000500A224046FEF78DFFEFE7D9F8001044
:10B2D0000A1DC9F8002009680A2206E0D9F8001002
:10B2E0000A1DC9F8002009681022CDE90050404627
:10B2F00004F0D2FBDAE7D9F8001000270A1DC9F8DC
:10B3000000200E68C00705D112E04046761C7F1C65
:10B31000FDF750FA31780029F7D104E020214046AA
:10B320006D1EFDF747FABD42C0D9002DF6D1BDE72D
:10B330004EB13046FBF7BEF8074604E020214046F8
:10B340006D1EFDF737FABD4206D9002DF6D103E098
:10B350004046761CFDF72EFA31780029F8D1A5E792
:10B36000D9F80000011DC9F80010056830214046D9
:10B37000FDF720FA78214046FDF71CFA082000214D
:10B38000CDE90001034610222946B0E7BDE8FC875D
:10B390002DE9F84F2B4E04009A4630884FF00103F8
:10B3A0001546894603EB004024D0216800292BD0A4
:10B3B000002D32D0626849464FF010071268A2F1A2
:10B3C000010C1CEA090F11D198466A432046FBF78D
:10B3D00050FB00282AD0206853462A46066901B04F
:10B3E00049462046B446BDE8F04F6047164B17A2C9
:10B3F000009721E00E210091134B1EA21FA100F027
:10B4000062FD0E20BDE8F88F082100910E4B26A2A8
:10B410001AA100F058FD0820F4E7092100910A4B19
:10B4200024A216A100F04FFD0920EBE70097318818
:10B43000054B214A08EB014010A100F044FD10200B
:10B44000E0E70000AC2400204B0303006164647259
:10B450005F69735F706167655F616C69676E656482
:10B4600028705F66732C20706167655F6164647229
:10B4700029000000705F66730000000025732063E0
:10B480006865636B206661696C656420696E202560
:10B4900073282920776974682076616C756520307F
:10B4A0007825782E00000000705F66732D3E705F77
:10B4B000617069006C656E00EC06030038B503002E
:10B4C0000F484FF001054FF00E04008805EB0040D7
:10B4D00009D061B119600C6801B0A446BDE83040E4
:10B4E000114618466047074B07A2009402E0054B3F
:10B4F00007A2009408A100F0E6FC0E2038BD000071
:10B50000AC24002000030300705F6673000000009D
:10B51000705F617069000000257320636865636B6C
:10B52000206661696C656420696E20257328292076
:10B53000776974682076616C756520307825782E7F
:10B54000000000002DE9F04128B1016819B1C96976
:10B55000BDE8F04108470D4D0D480024461B142757
:10B560000DE000BF04EB840005EB8000016829B109
:10B57000C969884710B10120BDE8F081641CB6FBA1
:10B58000F7F0A042EED80020F6E70000702400207B
:10B5900084240020044801214174007A08B100206D
:10B5A0007047012070470000182D0020012801D0AD
:10B5B000032808D10449002201284A7400D0002041
:10B5C000087402F069BE7047182D002070B502465D
:10B5D000022801D0032A45D1234C207A002841D0EB
:10B5E000012833D0022831D120480023022A0068E4
:10B5F00002D0032A2AD11BE0E360017911B10129AD
:10B6000024D10DE0D0E90565711B4FF48056B1429D
:10B6100000D33146294481614569A9420ED015E025
:10B620000169491C0161426991420FD1237213E003
:10B63000E168491CE160082908D9E3602372022A05
:10B640000AD00D21FDF768FC02F0CCFD607C28B12A
:10B65000BDE8704000F0BABF0021F3E7BDE87040DC
:10B6600002F01ABE70BD0000182D0020E423002057
:10B670002DE9F84F3A4D04008B4628884FF001061B
:10B68000DDF828A0984691464FF00E0106EB0040E9
:10B690001AD0B9F1000F1BD02168002920D0092150
:10B6A000B8F1000F25D062685368B8FBF3F703FBCD
:10B6B0001782002A21D02B4B2BA2009135A100F03C
:10B6C00002FC0920BDE8F88F264B3DA2009102E064
:10B6D000244B3DA200912FA100F0F5FB0E20F1E7D5
:10B6E000082100911F4B3AA22AA100F0ECFB082090
:10B6F000E8E71C4B39A20091E0E75846FBF7B3F9A5
:10B70000102798B14846FBF7AEF9B0B1424659460A
:10B710002046FBF7AEF9B8B1CDF800A0206843464B
:10B720004A46C56859462046A847CBE7009728886F
:10B730000C4B06EB00402AA20CE000972888094B2E
:10B7400006EB00402CA205E000972888054B06EB8D
:10B75000004032A20FA100F0B6FB1020B2E70000BB
:10B76000AC2400203803030021286C656E202520BE
:10B77000705F66732D3E705F666C6173685F696EA3
:10B78000666F2D3E70726F6772616D5F756E697462
:10B7900029000000257320636865636B206661697A
:10B7A0006C656420696E2025732829207769746888
:10B7B0002076616C756520307825782E00000000B9
:10B7C000705F667300000000705F737263000000BA
:10B7D000705F66732D3E705F617069006C656E000E
:10B7E000616464725F69735F616C69676E6564331D
:10B7F0003228646573742900616464725F69735FE1
:10B80000616C69676E65643332282875696E7433BC
:10B81000325F7429705F737263290000616464721F
:10B820005F69735F77697468696E5F626F756E6474
:10B830007328705F66732C20646573742C206C65AC
:10B840006E2900002DE9FF411C46DDE90A78154606
:10B850000E46684600F0AAF846EA450141EA84012E
:10B8600041EA072242EA0841009A00EB8200C0F850
:10B870000017BDE8FF812DE9FF411C46DDE90A788C
:10B8800015460E46684600F09FF846EA450141EA33
:10B89000840141EA072242EA0841009A00EB820053
:10B8A000C0F80017BDE8FF812DE9FF411C46DDE926
:10B8B0000A7815460E46684600F094F846EA4501B7
:10B8C00041EA840141EA072242EA0841009A00EB7A
:10B8D0008200C0F80017BDE8FF812DE9FF411C463A
:10B8E000DDE90A7815460E46684600F089F846EA12
:10B8F000450141EA840141EA072242EA0841009AEF
:10B9000000EB8200C0F80017BDE8FF811CB50021E4
:10B9100000910B4601220191FFF7C6FF1CBD1CB52B
:10B92000002100910B4601220191FFF7D6FF1CBDBB
:10B930001CB500220B46009211460192FFF7B4FF9E
:10B940001CBD1CB500220B46009211460192FFF768
:10B95000C4FF1CBD1CB5002100910B4601220191C2
:10B960001146FFF7A1FF1CBD1CB5002100910B463D
:10B97000012201911146FFF7B0FF1CBD13B50C4623
:10B98000684600F021F8009900EB8101D1F800270A
:10B9900022F44032C1F80027009900EB8100D0F872
:10B9A000001741EA0441C0F800171CBD01682029B6
:10B9B00002D24FF0A040704701F01F010160014822
:10B9C00070470000000300500168202902D24FF0A8
:10B9D000A040704701F01F0101600148704700005E
:10B9E000000300500168202902D24FF0A0407047A8
:10B9F00001F01F0101600148704700000003005082
:10BA00000168202902D24FF0A040704701F01F01C9
:10BA100001600148704700000003005001B568460E
:10BA2000FFF7D2FFD0F810050099C84000F00100E0
:10BA300008BD01B56846FFF7D5FF009A0121914086
:10BA4000C0F8081508BD01B56846FFF7D9FF009A90
:10BA500001219140C0F8081508BD38B501240090B7
:10BA6000684631B1FFF7A2FF00998C40C0F8084545
:10BA700038BDFFF79BFF00998C40C0F80C4538BDDE
:10BA80001CB5094C0144D4E90034CDE900346C46BE
:10BA900006E000BF54F82030D3F81035401C08C22F
:10BAA0008142F7D81CBD0000B0020300034908B56D
:10BAB0000844002101600068009008BD006000405B
:10BAC00002494058012800D0002070470060004023
:10BAD00030B5124B01460020D3F81044224609E04D
